:100000000C942A000C943C000C943C000C943C0092
:100010000C943C000C943C000C943C000C943C0070
:100020000C943C000C943C000C943C000C943C0060
:100030000C943C000C943C000C943C000C943C0050
:100040000C943C000C943C000C943C000C943C0040
:100050000C943C0011241FBECFE5D8E0DEBFCDBF1D
:1000600020E0A0E6B0E001C01D92A136B207E1F7A2
:100070000E943E000C945A000C9400008FEF8ABB43
:1000800014BA85BB2FEF91E0989B2BBB999B1BBAB1
:100090009A9903C08BB389278BBB9B99F5CF80912D
:1000A00060008F5F80936000809160008BBB9B9BA2
:0800B000FECFEACFF894FFCF68
:00000001FF
