S0110000496E746572666163652E7372656382
S11300000C942A000C9481030C94AA030C94D3033B
S11300100C9447000C9447000C94C9040C94770486
S11300200C94A0040C944E040C94FC030C9425042E
S11300300C9447000C9447000C9447000C94470020
S11300400C9447000C9447000C9447000C94470010
S11300500C94470011241FBECFE5D8E0DEBFCDBF0E
S113006010E0A0E6B0E0EEEAFBE002C005900D92DD
S1130070AC38B107D9F720E0ACE8B0E001C01D927C
S1130080AE39B207E1F70E949F010C94D5050C9498
S11300900000CF93C82F60E080E10E94DC0260E0A2
S11300A081E10E94DC026C2F83E00E945E0361E028
S11300B082E10E94DC028FEC97E00197F1F700C027
S11300C0000060E082E10E94DC028FEC97E001977F
S11300D0F1F700C00000CF910895CF93C82F61E0DD
S11300E080E10E94DC0260E081E10E94DC026C2F6E
S11300F083E00E945E0361E082E10E94DC028FECF7
S113010097E00197F1F700C0000060E082E10E94EF
S1130110DC028FEC97E00197F1F700C00000CF916B
S113012008952FEF89EF90E0215080409040E1F74F
S113013000C0000088E30E9449008FEC97E001971B
S1130140F1F700C000008CE00E9449008FEC97E0BA
S11301500197F1F700C0000081E00E9449008FE997
S11301609FE00197F1F700C0000086E00E9449007B
S11301708FEC97E00197F1F700C0000008950F930A
S11301801F93CF938C01C0E0F801EC0FF11D808127
S1130190882321F00E946D00CF5FF6CFCF911F918D
S11301A00F9108952F923F924F925F926F927F9298
S11301B08F929F92AF92BF92CF92DF92EF92FF9273
S11301C00F931F93CF93DF93CDB7DEB765970FB629
S11301D0F894DEBF0FBECDBF29013A014B011C01CB
S11301E0CE0101969A8B898B80E1E989FA89119273
S11301F08A95E9F7C101A0E00E94C905D9F480E31A
S113020065960FB6F894DEBF0FBECDBFDF91CF91D8
S11302101F910F91FF90EF90DF90CF90BF90AF9020
S11302209F908F907F906F905F904F903F902F9012
S11302300C946D00C101A0E00E94C90514F01B8A52
S11302400AC00E94820529013A014B011C018DE27A
S11302500E946D00F4CF81E090E08C0F9D1FEB892C
S11302608E0F911D9D8B8C8B8AE0A82EB12CC12CF6
S1130270D12CE12CF12C00E010E09201A301B40197
S1130280C1010E94F204205DEC89FD892083FB8971
S1130290FF5FFB8B9201A301B401C1010E94F4042E
S11302A029013A014B011C01A0E00E94C90599F6FD
S11302B09B89992359F0FE012B89E20FF11D80815E
S11302C00E946D008B8981508B8BF2CF65960FB69F
S11302D0F894DEBF0FBECDBFDF91CF911F910F9178
S11302E0FF90EF90DF90CF90BF90AF909F908F9052
S11302F07F906F905F904F903F902F9008959C0156
S1130300932F990F990B492F592F692F792F892FE3
S11303100C94D200882319F0813019F0089580E8F4
S113032001C080EC860F0C944900CF93DF93EA015F
S11303300E948A01CE01DF91CF910C94BF00CF932C
S1130340DF9300D000D0CDB7DEB70E946E030E94C9
S1130350910067E081E00E94D4010E94E90180914C
S1130360680090916900A0916A00B0916B00898344
S11303709A83AB83BC83AE014F5F5F4F60E080E044
S11303800E94950140E650E060E081E00E94950102
S113039080E00E94EB018C016BE081E00E948A0105
S11303A0C8010E947F01F4CF813041F028F08230EF
S11303B039F43E9A3F9A04C03E9801C03E9A3F9851
S11303C086B1887F86B986B16770682B66B93D9817
S11303D00895379A089597B1907E97B997B1892B6C
S11303E087B9369A3699FECF84B195B10895982F7E
S11303F09695969596958770613009F441C020F0E2
S1130400623009F489C00895913099F028F092304F
S1130410E9F0933041F108954AB321E030E0B901A5
S113042002C0660F771F8A95E2F7CB01842B8ABB43
S1130430089547B321E030E0B90102C0660F771F89
S11304408A95E2F7CB01842B87BB089544B321E05E
S113045030E0B90102C0660F771F8A95E2F7CB013D
S1130460842B84BB089541B321E030E0B90102C07C
S1130470660F771F8A95E2F7CB01842B81BB089521
S11304809130B9F028F0923029F19330A1F1089518
S11304904AB321E030E0B90102C0660F771F8A95A4
S11304A0E2F7CB018095942F98239ABB9BB38923C1
S11304B04BC047B321E030E0B90102C0660F771F9B
S11304C08A95E2F7CB018095942F982397BB98B334
S11304D089234CC044B321E030E0B90102C0660F67
S11304E0771F8A95E2F7CB018095942F982394BBCC
S11304F095B389234DC041B321E030E0B90102C076
S1130500660F771F8A95E2F7CB018095942F982385
S113051091BB92B389234EC09130C1F028F0923040
S113052039F19330B9F108954AB321E030E0B901CB
S113053002C0660F771F8A95E2F7CB01962F90953C
S113054094239ABB9BB3892B8BBB089547B321E0BB
S113055030E0B90102C0660F771F8A95E2F7CB013C
S1130560962F9095942397BB98B3892B88BB0895B5
S113057044B321E030E0B90102C0660F771F8A95C9
S1130580E2F7CB01962F9095942394BB95B3892BD6
S113059085BB089541B321E030E0B90102C0660F84
S11305A0771F8A95E2F7CB01962F9095942391BB00
S11305B092B3892B82BB0895982F9695969596951C
S11305C087706623D9F1613009F077C0913091F0DA
S11305D028F09230D9F0933029F108954BB321E0FB
S11305E030E0B90102C0660F771F8A95E2F7CB01AC
S11305F0842B38C048B321E030E0B90102C0660F53
S1130600771F8A95E2F7CB01842B3AC045B321E0EA
S113061030E0B90102C0660F771F8A95E2F7CB017B
S1130620842B3CC042B321E030E0B90102C0660F24
S1130630771F8A95E2F7CB01842B3EC09130A1F05D
S113064028F09230F9F0933059F108954BB321E03A
S113065030E0B90102C0660F771F8A95E2F7CB013B
S1130660809584238BBB089548B321E030E0B90121
S113067002C0660F771F8A95E2F7CB018095842329
S113068088BB089545B321E030E0B90102C0660F8C
S1130690771F8A95E2F7CB018095842385BB089563
S11306A042B321E030E0B90102C0660F771F8A959A
S11306B0E2F7CB018095842382BB0895813041F019
S11306C028F0823039F0833039F008956BBB0895F7
S11306D068BB089565BB089562BB08950F931F938B
S11306E0CF930CE610E0C0E0F80161918F018C2FEC
S11306F00E94F701CF5FC032B9F7CF911F910F91DC
S113070008951F920F920FB60F9211242F933F93C7
S11307104F935F936F937F938F939F93AF93BF9305
S1130720EF93FF93E0919000F0919100309709F0DE
S11307300995FF91EF91BF91AF919F918F917F9117
S11307406F915F914F913F912F910F900FBE0F903A
S11307501F9018951F920F920FB60F9211242F938A
S11307603F934F935F936F937F938F939F93AF9335
S1130770BF93EF93FF93E0918E00F0918F00309739
S113078009F00995FF91EF91BF91AF919F918F91DE
S11307907F916F915F914F913F912F910F900FBE79
S11307A00F901F9018951F920F920FB60F9211245D
S11307B02F933F934F935F936F937F938F939F9365
S11307C0AF93BF93EF93FF93E0918C00F0918D0072
S11307D0309709F00995FF91EF91BF91AF919F91E7
S11307E08F917F916F915F914F913F912F910F90D6
S11307F00FBE0F901F9018951F920F920FB60F9275
S113080011242F933F934F935F936F937F938F9311
S11308109F93AF93BF93EF93FF93E0919C00F0916C
S11308209D00309709F00995FF91EF91BF91AF9129
S11308309F918F917F916F915F914F913F912F91F4
S11308400F900FBE0F901F9018951F920F920FB626
S11308500F9211242F933F934F935F936F937F9342
S11308608F939F93AF93BF93EF93FF93E0919A007D
S1130870F0919B00309709F00995FF91EF91BF919A
S1130880AF919F918F917F916F915F914F913F9124
S11308902F910F900FBE0F901F9018951F920F92DB
S11308A00FB60F9211242F933F934F935F936F933F
S11308B07F938F939F93AF93BF93EF93FF93E091B5
S11308C09800F0919900309709F00995FF91EF9104
S11308D0BF91AF919F918F917F916F915F914F9154
S11308E03F912F910F900FBE0F901F9018951F925C
S11308F00F920FB60F9211242F933F934F935F9350
S11309006F937F938F939F93AF93BF93EF93FF93D3
S1130910E0919600F0919700309709F00995FF91C6
S1130920EF91BF91AF919F918F917F916F915F9163
S11309304F913F912F910F900FBE0F901F901895DC
S11309401F920F920FB60F9211242F933F934F9340
S11309505F936F937F938F939F93AF93BF93EF9323
S1130960FF93E0919400F0919500309709F0099578
S1130970FF91EF91BF91AF919F918F917F916F9173
S11309805F914F913F912F910F900FBE0F901F9049
S113099018951F920F920FB60F9211242F933F9325
S11309A04F935F936F937F938F939F93AF93BF9373
S11309B0EF93FF93E0919200F0919300309709F048
S11309C00995FF91EF91BF91AF919F918F917F9185
S11309D06F915F914F913F912F910F900FBE0F90A8
S11309E01F901895689401C0E894F92FF12B12F028
S11309F00C942605A0E0B0E0E0E0F5E00C94980546
S1130A00092E059422F40E948205112392F4F0E841
S1130A100F26FFEFE094F09400951095B094C094E5
S1130A20D094A194BF0ACF0ADF0AEF0AFF0A0F0B82
S1130A301F0B0E94310507FC0E948205CDB7DEB76B
S1130A40ECE00C94B405689401C0E8948F929F92F2
S1130A50CF93DF930E943105DF91CF919F908F90C8
S1130A60089588249924F401E401B0E49F93AA270B
S1130A709A158B049C04ED05FE05CF05D007A1074C
S1130A8098F4AD2FDC2FCF2FFE2FE92D982C892E33
S1130A90982F872F762F652F542F432F322F2227FD
S1130AA0B85031F7BF9127C01B2EBF91BB27220F2F
S1130AB0331F441F551F661F771F881F991F881CEB
S1130AC0991CEE1FFF1FCC1FDD1FAA1FBB1F8A141A
S1130AD09B04EC05FD05CE05DF05A007B10748F032
S1130AE08A189B08EC09FD09CE09DF09A00BB10B9C
S1130AF021601A94E1F62EF49401AF01BE01CD01F8
S1130B00000C08956095709580959095309540956A
S1130B10509521953F4F4F4F5F4F6F4F7F4F8F4FF2
S1130B209F4F08952F923F924F925F926F927F92C0
S1130B308F929F92AF92BF92CF92DF92EF92FF92E9
S1130B400F931F93CF93DF93CDB7DEB7CA1BDB0B95
S1130B500FB6F894DEBF0FBECDBF09942A8839883A
S1130B6048885F846E847D848C849B84AA84B98441
S1130B70C884DF80EE80FD800C811B81AA81B9814D
S1130B80CE0FD11D0FB6F894DEBF0FBECDBFED0161
S1130B9008950024A7FD00942A1730054005500548
S1110BA060057005800590050895F894FFCF58
S1130BAE72656164696E670041444300010000018F
S1130BBE010101010000000000000000000000001F
S10F0BCE00000000000000000000000017
S9030000FC
